{
  "contractName": "Pausable",
  "abi": [
    {
      "constant": true,
      "inputs": [],
      "name": "paused",
      "outputs": [
        {
          "name": "",
          "type": "bool"
        }
      ],
      "payable": false,
      "stateMutability": "view",
      "type": "function"
    },
    {
      "constant": false,
      "inputs": [],
      "name": "acceptOwnership",
      "outputs": [],
      "payable": false,
      "stateMutability": "nonpayable",
      "type": "function"
    },
    {
      "constant": true,
      "inputs": [],
      "name": "owner",
      "outputs": [
        {
          "name": "",
          "type": "address"
        }
      ],
      "payable": false,
      "stateMutability": "view",
      "type": "function"
    },
    {
      "constant": true,
      "inputs": [],
      "name": "newOwner",
      "outputs": [
        {
          "name": "",
          "type": "address"
        }
      ],
      "payable": false,
      "stateMutability": "view",
      "type": "function"
    },
    {
      "constant": false,
      "inputs": [
        {
          "name": "_newOwner",
          "type": "address"
        }
      ],
      "name": "transferOwnership",
      "outputs": [],
      "payable": false,
      "stateMutability": "nonpayable",
      "type": "function"
    },
    {
      "anonymous": false,
      "inputs": [],
      "name": "Pause",
      "type": "event"
    },
    {
      "anonymous": false,
      "inputs": [],
      "name": "Unpause",
      "type": "event"
    },
    {
      "anonymous": false,
      "inputs": [
        {
          "indexed": true,
          "name": "_from",
          "type": "address"
        },
        {
          "indexed": true,
          "name": "_to",
          "type": "address"
        }
      ],
      "name": "OwnershipTransferred",
      "type": "event"
    },
    {
      "constant": false,
      "inputs": [],
      "name": "pause",
      "outputs": [],
      "payable": false,
      "stateMutability": "nonpayable",
      "type": "function"
    },
    {
      "constant": false,
      "inputs": [],
      "name": "unpause",
      "outputs": [],
      "payable": false,
      "stateMutability": "nonpayable",
      "type": "function"
    }
  ],
  "bytecode": "0x60806040526000600160146101000a81548160ff021916908315150217905550336000806101000a81548173ffffffffffffffffffffffffffffffffffffffff021916908373ffffffffffffffffffffffffffffffffffffffff1602179055506106328061006e6000396000f300608060405260043610610083576000357c0100000000000000000000000000000000000000000000000000000000900463ffffffff1680633f4ba83a146100885780635c975abb1461009f57806379ba5097146100ce5780638456cb59146100e55780638da5cb5b146100fc578063d4ee1d9014610153578063f2fde38b146101aa575b600080fd5b34801561009457600080fd5b5061009d6101ed565b005b3480156100ab57600080fd5b506100b46102ac565b604051808215151515815260200191505060405180910390f35b3480156100da57600080fd5b506100e36102bf565b005b3480156100f157600080fd5b506100fa61045d565b005b34801561010857600080fd5b5061011161051c565b604051808273ffffffffffffffffffffffffffffffffffffffff1673ffffffffffffffffffffffffffffffffffffffff16815260200191505060405180910390f35b34801561015f57600080fd5b50610168610541565b604051808273ffffffffffffffffffffffffffffffffffffffff1673ffffffffffffffffffffffffffffffffffffffff16815260200191505060405180910390f35b3480156101b657600080fd5b506101eb600480360381019080803573ffffffffffffffffffffffffffffffffffffffff169060200190929190505050610567565b005b6000809054906101000a900473ffffffffffffffffffffffffffffffffffffffff1673ffffffffffffffffffffffffffffffffffffffff163373ffffffffffffffffffffffffffffffffffffffff1614151561024857600080fd5b600160149054906101000a900460ff16151561026357600080fd5b6000600160146101000a81548160ff0219169083151502179055507f7805862f689e2f13df9f062ff482ad3ad112aca9e0847911ed832e158c525b3360405160405180910390a1565b600160149054906101000a900460ff1681565b6000809054906101000a900473ffffffffffffffffffffffffffffffffffffffff1673ffffffffffffffffffffffffffffffffffffffff163373ffffffffffffffffffffffffffffffffffffffff1614151561031a57600080fd5b600160009054906101000a900473ffffffffffffffffffffffffffffffffffffffff1673ffffffffffffffffffffffffffffffffffffffff166000809054906101000a900473ffffffffffffffffffffffffffffffffffffffff1673ffffffffffffffffffffffffffffffffffffffff167f8be0079c531659141344cd1fd0a4f28419497f9722a3daafe3b4186f6b6457e060405160405180910390a3600160009054906101000a900473ffffffffffffffffffffffffffffffffffffffff166000806101000a81548173ffffffffffffffffffffffffffffffffffffffff021916908373ffffffffffffffffffffffffffffffffffffffff1602179055506000600160006101000a81548173ffffffffffffffffffffffffffffffffffffffff021916908373ffffffffffffffffffffffffffffffffffffffff160217905550565b6000809054906101000a900473ffffffffffffffffffffffffffffffffffffffff1673ffffffffffffffffffffffffffffffffffffffff163373ffffffffffffffffffffffffffffffffffffffff161415156104b857600080fd5b600160149054906101000a900460ff161515156104d457600080fd5b60018060146101000a81548160ff0219169083151502179055507f6985a02210a168e66602d3235cb6db0e70f92b3ba4d376a33c0f3d9434bff62560405160405180910390a1565b6000809054906101000a900473ffffffffffffffffffffffffffffffffffffffff1681565b600160009054906101000a900473ffffffffffffffffffffffffffffffffffffffff1681565b6000809054906101000a900473ffffffffffffffffffffffffffffffffffffffff1673ffffffffffffffffffffffffffffffffffffffff163373ffffffffffffffffffffffffffffffffffffffff161415156105c257600080fd5b80600160006101000a81548173ffffffffffffffffffffffffffffffffffffffff021916908373ffffffffffffffffffffffffffffffffffffffff160217905550505600a165627a7a72305820fdea509d2dd1ee0d2b8eeb271f854d673f2d1d0181c9d90591540801a569d5a30029",
  "source": "pragma solidity 0.4.22;\r\n\r\nlibrary SafeMath {\r\n    function add(uint a, uint b) internal pure returns (uint c) {\r\n        c = a + b;\r\n        require(c >= a);\r\n    }\r\n    function sub(uint a, uint b) internal pure returns (uint c) {\r\n        require(b <= a);\r\n        c = a - b;\r\n    }\r\n    function mul(uint a, uint b) internal pure returns (uint c) {\r\n        c = a * b;\r\n        require(a == 0 || c / a == b);\r\n    }\r\n    function div(uint a, uint b) internal pure returns (uint c) {\r\n        require(b > 0);\r\n        c = a / b;\r\n    }\r\n}\r\n\r\ncontract ERC20Interface {\r\n    function totalSupply() public view returns (uint);\r\n    function balanceOf(address tokenOwner) public view returns (uint balance);\r\n    function allowance(address tokenOwner, address spender) public view returns (uint remaining);\r\n    function transfer(address to, uint tokens) public returns (bool success);\r\n    function approve(address spender, uint tokens) public returns (bool success);\r\n    function transferFrom(address from, address to, uint tokens) public returns (bool success);\r\n    event Transfer(address indexed from, address indexed to, uint tokens);\r\n    event Approval(address indexed tokenOwner, address indexed spender, uint tokens);\r\n    event FrozenFunds(address target, uint tokens);\r\n    event Buy(address indexed sender, uint eth, uint token);\r\n}\r\n\r\n// Owned contract\r\ncontract Owned {\r\n    address public owner;\r\n    address public newOwner;\r\n    event OwnershipTransferred(address indexed _from, address indexed _to);\r\n\r\n    constructor() public {\r\n        owner = msg.sender;\r\n    }\r\n    modifier onlyOwner {\r\n        require(msg.sender == owner);\r\n        _;\r\n    }\r\n\r\n    //Transfer owner rights, can use only owner (the best practice of secure for the contracts)\r\n    function transferOwnership(address _newOwner) public onlyOwner {\r\n        newOwner = _newOwner;\r\n    }\r\n\r\n    //Accept tranfer owner rights\r\n    function acceptOwnership() public onlyOwner {\r\n        emit OwnershipTransferred(owner, newOwner);\r\n        owner = newOwner;\r\n        newOwner = address(0);\r\n    }\r\n}\r\n\r\n// Pausable Contract\r\ncontract Pausable is Owned {\r\n  event Pause();\r\n  event Unpause();\r\n\r\n  bool public paused = false;\r\n\r\n  //Modifier to make a function callable only when the contract is not paused.\r\n  modifier whenNotPaused() {\r\n    require(!paused);\r\n    _;\r\n  }\r\n\r\n\r\n  //Modifier to make a function callable only when the contract is paused.\r\n  modifier whenPaused() {\r\n    require(paused);\r\n    _;\r\n  }\r\n\r\n  //called by the owner to pause, triggers stopped state\r\n  function pause() onlyOwner whenNotPaused public {\r\n    paused = true;\r\n    emit Pause();\r\n  }\r\n\r\n  //called by the owner to unpause, returns to normal state\r\n  function unpause() onlyOwner whenPaused public {\r\n    paused = false;\r\n    emit Unpause();\r\n  }\r\n}\r\n\r\ncontract GP is ERC20Interface, Pausable {\r\n    using SafeMath for uint;\r\n    string public symbol;\r\n    string public  name;\r\n    uint8 public decimals;\r\n\r\n    uint public _totalSupply;\r\n    mapping(address => uint) public balances;\r\n    mapping(address => uint) public lockInfo;\r\n    mapping(address => mapping(address => uint)) internal allowed;\r\n    mapping (address => bool) public admins;\r\n    \r\n    modifier onlyAdmin {\r\n        require(msg.sender == owner || admins[msg.sender]);\r\n        _;\r\n    }\r\n\r\n    function setAdmin(address _admin, bool isAdmin) public onlyOwner {\r\n        admins[_admin] = isAdmin;\r\n    }\r\n\r\n    constructor() public{\r\n        symbol = 'GP';\r\n        name = 'GTEX Point Token';\r\n        decimals = 18;\r\n        _totalSupply = 4000000000*10**uint(decimals);\r\n        balances[owner] = _totalSupply;\r\n        emit Transfer(address(0), owner, _totalSupply);\r\n    }\r\n\r\n    function totalSupply() public view returns (uint) {\r\n        return _totalSupply;\r\n    }\r\n\r\n    function balanceOf(address tokenOwner) public view returns (uint balance) {\r\n        return balances[tokenOwner];\r\n    }\r\n\r\n    function _transfer(address _from, address _to, uint _value) internal {\r\n        require(_to != 0x0);                                    // Prevent transfer to 0x0 address. Use burn() instead\r\n        require(_value != 0);                                   // Prevent transfer 0\r\n        require(balances[_from] >= _value);                     // Check if the sender has enough\r\n        require(balances[_from] - _value >= lockInfo[_from]);   // Check after transaction, balance is still more than locked value\r\n        balances[_from] = balances[_from].sub(_value);          // Substract value from sender\r\n        balances[_to] = balances[_to].add(_value);              // Add value to recipient\r\n        emit Transfer(_from, _to, _value);\r\n    }\r\n\r\n    function transfer(address to, uint tokens) public whenNotPaused returns (bool success) {\r\n         _transfer(msg.sender, to, tokens);\r\n         return true;\r\n    }\r\n\r\n    function approve(address _spender, uint tokens) public whenNotPaused returns (bool success) {\r\n        allowed[msg.sender][_spender] = tokens;\r\n        emit Approval(msg.sender, _spender, tokens);\r\n        return true;\r\n    }\r\n\r\n    function transferFrom(address from, address to, uint tokens) public whenNotPaused returns (bool success) {\r\n        require(allowed[from][msg.sender] >= tokens);\r\n        _transfer(from, to, tokens);\r\n        allowed[from][msg.sender] = allowed[from][msg.sender].sub(tokens);\r\n        return true;\r\n    }\r\n\r\n    function allowance(address tokenOwner, address spender) public whenNotPaused view returns (uint remaining) {\r\n        return allowed[tokenOwner][spender];\r\n    }\r\n    \r\n    //Admin Tool\r\n    function lockOf(address tokenOwner) public view returns (uint lockedToken) {\r\n        return lockInfo[tokenOwner];\r\n    }\r\n\r\n    //lock tokens or lock 0 to release all\r\n    function lock(address target, uint lockedToken) public whenNotPaused onlyAdmin {\r\n        lockInfo[target] = lockedToken;\r\n        emit FrozenFunds(target, lockedToken);\r\n    }\r\n    \r\n    //Batch lock amount with array\r\n    function batchLockArray(address[] accounts, uint[] lockedToken) public whenNotPaused onlyAdmin {\r\n      for (uint i = 0; i < accounts.length; i++) {\r\n           lock(accounts[i], lockedToken[i]);\r\n        }\r\n    }\r\n    \r\n    //Send token with lock \r\n    function sendTokensWithLock (address receiver, uint tokens, bool freeze) public whenNotPaused onlyAdmin {\r\n        _transfer(msg.sender, receiver, tokens);\r\n        if(freeze) {\r\n            uint lockedAmount = lockInfo[receiver] + tokens;\r\n            lock(receiver, lockedAmount);\r\n        }\r\n    }\r\n\r\n    //VIP Batch with lock\r\n    function batchVipWithLock(address[] receivers, uint[] tokens, bool freeze) public whenNotPaused onlyAdmin {\r\n      for (uint i = 0; i < receivers.length; i++) {\r\n           sendTokensWithLock(receivers[i], tokens[i], freeze);\r\n        }\r\n    }\r\n\r\n    //Send initial tokens\r\n    function sendInitialTokens (address user) public onlyOwner {\r\n        _transfer(msg.sender, user, balanceOf(owner));\r\n    }\r\n}",
  "sourcePath": "D:/GitHub/GTEXSmartContract/contracts/GP.sol",
  "compiler": {
    "name": "solc",
    "version": "0.4.22+commit.4cb486ee.Emscripten.clang"
  },
  "schemaVersion": "3.0.5",
  "updatedAt": "2019-03-23T18:49:02.703Z",
  "devdoc": {
    "methods": {}
  },
  "userdoc": {
    "methods": {}
  }
}